{
  "_format": "hh-sol-artifact-1",
  "contractName": "ReceiptRegistry",
  "sourceName": "contracts/ReceiptRegistry.sol",
  "abi": [
    {
      "anonymous": false,
      "inputs": [
        {
          "indexed": true,
          "internalType": "bytes32",
          "name": "txHash",
          "type": "bytes32"
        },
        {
          "indexed": false,
          "internalType": "string",
          "name": "cid",
          "type": "string"
        }
      ],
      "name": "ReceiptRegistered",
      "type": "event"
    },
    {
      "inputs": [
        {
          "internalType": "bytes32",
          "name": "txHash",
          "type": "bytes32"
        }
      ],
      "name": "getReceipt",
      "outputs": [
        {
          "internalType": "string",
          "name": "",
          "type": "string"
        }
      ],
      "stateMutability": "view",
      "type": "function"
    },
    {
      "inputs": [
        {
          "internalType": "bytes32",
          "name": "txHash",
          "type": "bytes32"
        },
        {
          "internalType": "string",
          "name": "cid",
          "type": "string"
        }
      ],
      "name": "registerReceipt",
      "outputs": [],
      "stateMutability": "nonpayable",
      "type": "function"
    }
  ],
  "bytecode": "0x608060405234801561001057600080fd5b5061042a806100206000396000f3fe608060405234801561001057600080fd5b50600436106100365760003560e01c8063caf9ae701461003b578063fcecbb6114610050575b600080fd5b61004e610049366004610186565b610079565b005b61006361005e366004610241565b6100ce565b604051610070919061025a565b60405180910390f35b60008281526020819052604090206100918282610334565b50817f2427a051d51ab3ed8c0c17d4f9b64b38e4b46e68eccdc4a9f814f272a8bd02e2826040516100c2919061025a565b60405180910390a25050565b60008181526020819052604090208054606091906100eb906102a9565b80601f0160208091040260200160405190810160405280929190818152602001828054610117906102a9565b80156101645780601f1061013957610100808354040283529160200191610164565b820191906000526020600020905b81548152906001019060200180831161014757829003601f168201915b50505050509050919050565b634e487b7160e01b600052604160045260246000fd5b6000806040838503121561019957600080fd5b82359150602083013567ffffffffffffffff808211156101b857600080fd5b818501915085601f8301126101cc57600080fd5b8135818111156101de576101de610170565b604051601f8201601f19908116603f0116810190838211818310171561020657610206610170565b8160405282815288602084870101111561021f57600080fd5b8260208601602083013760006020848301015280955050505050509250929050565b60006020828403121561025357600080fd5b5035919050565b60006020808352835180602085015260005b818110156102885785810183015185820160400152820161026c565b506000604082860101526040601f19601f8301168501019250505092915050565b600181811c908216806102bd57607f821691505b6020821081036102dd57634e487b7160e01b600052602260045260246000fd5b50919050565b601f82111561032f576000816000526020600020601f850160051c8101602086101561030c5750805b601f850160051c820191505b8181101561032b57828155600101610318565b5050505b505050565b815167ffffffffffffffff81111561034e5761034e610170565b6103628161035c84546102a9565b846102e3565b602080601f831160018114610397576000841561037f5750858301515b600019600386901b1c1916600185901b17855561032b565b600085815260208120601f198616915b828110156103c6578886015182559484019460019091019084016103a7565b50858210156103e45787850151600019600388901b60f8161c191681555b5050505050600190811b0190555056fea2646970667358221220192fbd488569ba9626f4b4e8da8a62a6ecd28efbf938d38d6aed62a85c5fc1a364736f6c63430008170033",
  "linkReferences": {},
  "deployedLinkReferences": {}
}