{
  "_format": "hh-sol-artifact-1",
  "contractName": "RampVault",
  "sourceName": "contracts/RampVault.sol",
  "abi": [
    {
      "inputs": [
        {
          "internalType": "address",
          "name": "admin",
          "type": "address"
        }
      ],
      "stateMutability": "nonpayable",
      "type": "constructor"
    },
    {
      "inputs": [],
      "name": "AccessControlBadConfirmation",
      "type": "error"
    },
    {
      "inputs": [
        {
          "internalType": "address",
          "name": "account",
          "type": "address"
        },
        {
          "internalType": "bytes32",
          "name": "neededRole",
          "type": "bytes32"
        }
      ],
      "name": "AccessControlUnauthorizedAccount",
      "type": "error"
    },
    {
      "inputs": [],
      "name": "ReentrancyGuardReentrantCall",
      "type": "error"
    },
    {
      "anonymous": false,
      "inputs": [
        {
          "indexed": true,
          "internalType": "address",
          "name": "token",
          "type": "address"
        },
        {
          "indexed": true,
          "internalType": "address",
          "name": "from",
          "type": "address"
        },
        {
          "indexed": false,
          "internalType": "uint256",
          "name": "amount",
          "type": "uint256"
        }
      ],
      "name": "Deposited",
      "type": "event"
    },
    {
      "anonymous": false,
      "inputs": [
        {
          "indexed": true,
          "internalType": "bytes32",
          "name": "role",
          "type": "bytes32"
        },
        {
          "indexed": true,
          "internalType": "bytes32",
          "name": "previousAdminRole",
          "type": "bytes32"
        },
        {
          "indexed": true,
          "internalType": "bytes32",
          "name": "newAdminRole",
          "type": "bytes32"
        }
      ],
      "name": "RoleAdminChanged",
      "type": "event"
    },
    {
      "anonymous": false,
      "inputs": [
        {
          "indexed": true,
          "internalType": "bytes32",
          "name": "role",
          "type": "bytes32"
        },
        {
          "indexed": true,
          "internalType": "address",
          "name": "account",
          "type": "address"
        },
        {
          "indexed": true,
          "internalType": "address",
          "name": "sender",
          "type": "address"
        }
      ],
      "name": "RoleGranted",
      "type": "event"
    },
    {
      "anonymous": false,
      "inputs": [
        {
          "indexed": true,
          "internalType": "bytes32",
          "name": "role",
          "type": "bytes32"
        },
        {
          "indexed": true,
          "internalType": "address",
          "name": "account",
          "type": "address"
        },
        {
          "indexed": true,
          "internalType": "address",
          "name": "sender",
          "type": "address"
        }
      ],
      "name": "RoleRevoked",
      "type": "event"
    },
    {
      "anonymous": false,
      "inputs": [
        {
          "indexed": true,
          "internalType": "address",
          "name": "token",
          "type": "address"
        },
        {
          "indexed": true,
          "internalType": "address",
          "name": "to",
          "type": "address"
        },
        {
          "indexed": false,
          "internalType": "uint256",
          "name": "amount",
          "type": "uint256"
        }
      ],
      "name": "Withdrawn",
      "type": "event"
    },
    {
      "inputs": [],
      "name": "DEFAULT_ADMIN_ROLE",
      "outputs": [
        {
          "internalType": "bytes32",
          "name": "",
          "type": "bytes32"
        }
      ],
      "stateMutability": "view",
      "type": "function"
    },
    {
      "inputs": [],
      "name": "WORKER_ROLE",
      "outputs": [
        {
          "internalType": "bytes32",
          "name": "",
          "type": "bytes32"
        }
      ],
      "stateMutability": "view",
      "type": "function"
    },
    {
      "inputs": [
        {
          "internalType": "address",
          "name": "token",
          "type": "address"
        },
        {
          "internalType": "uint256",
          "name": "amount",
          "type": "uint256"
        }
      ],
      "name": "deposit",
      "outputs": [],
      "stateMutability": "nonpayable",
      "type": "function"
    },
    {
      "inputs": [
        {
          "internalType": "bytes32",
          "name": "role",
          "type": "bytes32"
        }
      ],
      "name": "getRoleAdmin",
      "outputs": [
        {
          "internalType": "bytes32",
          "name": "",
          "type": "bytes32"
        }
      ],
      "stateMutability": "view",
      "type": "function"
    },
    {
      "inputs": [
        {
          "internalType": "address",
          "name": "token",
          "type": "address"
        }
      ],
      "name": "getVaultBalance",
      "outputs": [
        {
          "internalType": "uint256",
          "name": "",
          "type": "uint256"
        }
      ],
      "stateMutability": "view",
      "type": "function"
    },
    {
      "inputs": [
        {
          "internalType": "bytes32",
          "name": "role",
          "type": "bytes32"
        },
        {
          "internalType": "address",
          "name": "account",
          "type": "address"
        }
      ],
      "name": "grantRole",
      "outputs": [],
      "stateMutability": "nonpayable",
      "type": "function"
    },
    {
      "inputs": [
        {
          "internalType": "bytes32",
          "name": "role",
          "type": "bytes32"
        },
        {
          "internalType": "address",
          "name": "account",
          "type": "address"
        }
      ],
      "name": "hasRole",
      "outputs": [
        {
          "internalType": "bool",
          "name": "",
          "type": "bool"
        }
      ],
      "stateMutability": "view",
      "type": "function"
    },
    {
      "inputs": [
        {
          "internalType": "bytes32",
          "name": "role",
          "type": "bytes32"
        },
        {
          "internalType": "address",
          "name": "callerConfirmation",
          "type": "address"
        }
      ],
      "name": "renounceRole",
      "outputs": [],
      "stateMutability": "nonpayable",
      "type": "function"
    },
    {
      "inputs": [
        {
          "internalType": "bytes32",
          "name": "role",
          "type": "bytes32"
        },
        {
          "internalType": "address",
          "name": "account",
          "type": "address"
        }
      ],
      "name": "revokeRole",
      "outputs": [],
      "stateMutability": "nonpayable",
      "type": "function"
    },
    {
      "inputs": [
        {
          "internalType": "bytes4",
          "name": "interfaceId",
          "type": "bytes4"
        }
      ],
      "name": "supportsInterface",
      "outputs": [
        {
          "internalType": "bool",
          "name": "",
          "type": "bool"
        }
      ],
      "stateMutability": "view",
      "type": "function"
    },
    {
      "inputs": [
        {
          "internalType": "address",
          "name": "token",
          "type": "address"
        },
        {
          "internalType": "uint256",
          "name": "amount",
          "type": "uint256"
        },
        {
          "internalType": "address",
          "name": "to",
          "type": "address"
        }
      ],
      "name": "withdraw",
      "outputs": [],
      "stateMutability": "nonpayable",
      "type": "function"
    }
  ],
  "bytecode": "0x608060405234801561001057600080fd5b506040516109a13803806109a183398101604081905261002f9161011c565b6001805561003e600082610070565b506100697ff1b411d6abb365480ac902cc153c45e9ded5847a2265ce6d01945d253edb6bc782610070565b505061014c565b6000828152602081815260408083206001600160a01b038516845290915281205460ff16610112576000838152602081815260408083206001600160a01b03861684529091529020805460ff191660011790556100ca3390565b6001600160a01b0316826001600160a01b0316847f2f8788117e7eff1d82e926ec794901d17c78024a50270940304540a733656f0d60405160405180910390a4506001610116565b5060005b92915050565b60006020828403121561012e57600080fd5b81516001600160a01b038116811461014557600080fd5b9392505050565b6108468061015b6000396000f3fe608060405234801561001057600080fd5b50600436106100a95760003560e01c8063634252dc11610071578063634252dc1461014257806369328dec1461016957806391d148541461017c578063a217fddf1461018f578063d3d7c00214610197578063d547741f146101aa57600080fd5b806301ffc9a7146100ae578063248a9ca3146100d65780632f2ff15d1461010757806336568abe1461011c57806347e7ef241461012f575b600080fd5b6100c16100bc3660046106c2565b6101bd565b60405190151581526020015b60405180910390f35b6100f96100e43660046106f3565b60009081526020819052604090206001015490565b6040519081526020016100cd565b61011a610115366004610728565b6101f4565b005b61011a61012a366004610728565b61021f565b61011a61013d366004610754565b610257565b6100f97ff1b411d6abb365480ac902cc153c45e9ded5847a2265ce6d01945d253edb6bc781565b61011a61017736600461077e565b610364565b6100c161018a366004610728565b61049c565b6100f9600081565b6100f96101a53660046107ba565b6104c5565b61011a6101b8366004610728565b610530565b60006001600160e01b03198216637965db0b60e01b14806101ee57506301ffc9a760e01b6001600160e01b03198316145b92915050565b60008281526020819052604090206001015461020f81610555565b6102198383610562565b50505050565b6001600160a01b03811633146102485760405163334bd91960e11b815260040160405180910390fd5b61025282826105f4565b505050565b61025f61065f565b6000811161029f5760405162461bcd60e51b81526020600482015260086024820152670616d6f756e743d360c41b60448201526064015b60405180910390fd5b6040516323b872dd60e01b8152336004820152306024820152604481018290526001600160a01b038316906323b872dd906064016020604051808303816000875af11580156102f2573d6000803e3d6000fd5b505050506040513d601f19601f8201168201806040525081019061031691906107d5565b5060405181815233906001600160a01b038416907f8752a472e571a816aea92eec8dae9baf628e840f4929fbcc2d155e6233ff68a79060200160405180910390a361036060018055565b5050565b61036c61065f565b7ff1b411d6abb365480ac902cc153c45e9ded5847a2265ce6d01945d253edb6bc761039681610555565b600083116103d15760405162461bcd60e51b81526020600482015260086024820152670616d6f756e743d360c41b6044820152606401610296565b60405163a9059cbb60e01b81526001600160a01b0383811660048301526024820185905285169063a9059cbb906044016020604051808303816000875af1158015610420573d6000803e3d6000fd5b505050506040513d601f19601f8201168201806040525081019061044491906107d5565b50816001600160a01b0316846001600160a01b03167fd1c19fbcd4551a5edfb66d43d2e337c04837afda3482b42bdf569a8fccdae5fb8560405161048a91815260200190565b60405180910390a35061025260018055565b6000918252602082815260408084206001600160a01b0393909316845291905290205460ff1690565b6040516370a0823160e01b81523060048201526000906001600160a01b038316906370a0823190602401602060405180830381865afa15801561050c573d6000803e3d6000fd5b505050506040513d601f19601f820116820180604052508101906101ee91906107f7565b60008281526020819052604090206001015461054b81610555565b61021983836105f4565b61055f8133610689565b50565b600061056e838361049c565b6105ec576000838152602081815260408083206001600160a01b03861684529091529020805460ff191660011790556105a43390565b6001600160a01b0316826001600160a01b0316847f2f8788117e7eff1d82e926ec794901d17c78024a50270940304540a733656f0d60405160405180910390a45060016101ee565b5060006101ee565b6000610600838361049c565b156105ec576000838152602081815260408083206001600160a01b0386168085529252808320805460ff1916905551339286917ff6391f5c32d9c69d2a47ea670b442974b53935d1edc7fd64eb21e047a839171b9190a45060016101ee565b60026001540361068257604051633ee5aeb560e01b815260040160405180910390fd5b6002600155565b610693828261049c565b6103605760405163e2517d3f60e01b81526001600160a01b038216600482015260248101839052604401610296565b6000602082840312156106d457600080fd5b81356001600160e01b0319811681146106ec57600080fd5b9392505050565b60006020828403121561070557600080fd5b5035919050565b80356001600160a01b038116811461072357600080fd5b919050565b6000806040838503121561073b57600080fd5b8235915061074b6020840161070c565b90509250929050565b6000806040838503121561076757600080fd5b6107708361070c565b946020939093013593505050565b60008060006060848603121561079357600080fd5b61079c8461070c565b9250602084013591506107b16040850161070c565b90509250925092565b6000602082840312156107cc57600080fd5b6106ec8261070c565b6000602082840312156107e757600080fd5b815180151581146106ec57600080fd5b60006020828403121561080957600080fd5b505191905056fea26469706673582212206a3a20c11601b9dff7ac783d361136122a8fbf7d9d594b30058d2c07eebfe95b64736f6c63430008170033",
  "linkReferences": {},
  "deployedLinkReferences": {}
}